{
  "contracts/NotaFiscalLedger.sol": {
    "NotaFiscalLedger": {
      "abi": [
        {
          "anonymous": false,
          "inputs": [
            {
              "indexed": true,
              "internalType": "uint256",
              "name": "id",
              "type": "uint256"
            },
            {
              "indexed": false,
              "internalType": "string",
              "name": "hash",
              "type": "string"
            }
          ],
          "name": "HashAdicionado",
          "type": "event"
        },
        {
          "inputs": [
            {
              "internalType": "string",
              "name": "_hash",
              "type": "string"
            }
          ],
          "name": "adicionarHash",
          "outputs": [],
          "stateMutability": "nonpayable",
          "type": "function"
        },
        {
          "inputs": [
            {
              "internalType": "uint256",
              "name": "",
              "type": "uint256"
            }
          ],
          "name": "hashes",
          "outputs": [
            {
              "internalType": "string",
              "name": "",
              "type": "string"
            }
          ],
          "stateMutability": "view",
          "type": "function"
        },
        {
          "inputs": [],
          "name": "totalHashes",
          "outputs": [
            {
              "internalType": "uint256",
              "name": "",
              "type": "uint256"
            }
          ],
          "stateMutability": "view",
          "type": "function"
        }
      ],
      "evm": {
        "bytecode": {
          "linkReferences": {},
          "object": "6080604052348015600f57600080fd5b506108318061001f6000396000f3fe608060405234801561001057600080fd5b50600436106100415760003560e01c80632cd0318f14610046578063501895ae14610064578063ee7d8d2a14610094575b600080fd5b61004e6100b0565b60405161005b9190610202565b60405180910390f35b61007e6004803603810190610079919061025d565b6100bc565b60405161008b919061031a565b60405180910390f35b6100ae60048036038101906100a99190610471565b610168565b005b60008080549050905090565b600081815481106100cc57600080fd5b9060005260206000200160009150905080546100e7906104e9565b80601f0160208091040260200160405190810160405280929190818152602001828054610113906104e9565b80156101605780601f1061013557610100808354040283529160200191610160565b820191906000526020600020905b81548152906001019060200180831161014357829003601f168201915b505050505081565b60008190806001815401808255809150506001900390600052602060002001600090919091909150908161019c91906106c6565b5060016000805490506101af91906107c7565b7f64759b9d9e10eb752be437a1024cef682ac08c945c79621a26480cf4512c516f826040516101de919061031a565b60405180910390a250565b6000819050919050565b6101fc816101e9565b82525050565b600060208201905061021760008301846101f3565b92915050565b6000604051905090565b600080fd5b600080fd5b61023a816101e9565b811461024557600080fd5b50565b60008135905061025781610231565b92915050565b60006020828403121561027357610272610227565b5b600061028184828501610248565b91505092915050565b600081519050919050565b600082825260208201905092915050565b60005b838110156102c45780820151818401526020810190506102a9565b60008484015250505050565b6000601f19601f8301169050919050565b60006102ec8261028a565b6102f68185610295565b93506103068185602086016102a6565b61030f816102d0565b840191505092915050565b6000602082019050818103600083015261033481846102e1565b905092915050565b600080fd5b600080fd5b7f4e487b7100000000000000000000000000000000000000000000000000000000600052604160045260246000fd5b61037e826102d0565b810181811067ffffffffffffffff8211171561039d5761039c610346565b5b80604052505050565b60006103b061021d565b90506103bc8282610375565b919050565b600067ffffffffffffffff8211156103dc576103db610346565b5b6103e5826102d0565b9050602081019050919050565b82818337600083830152505050565b600061041461040f846103c1565b6103a6565b9050828152602081018484840111156104305761042f610341565b5b61043b8482856103f2565b509392505050565b600082601f8301126104585761045761033c565b5b8135610468848260208601610401565b91505092915050565b60006020828403121561048757610486610227565b5b600082013567ffffffffffffffff8111156104a5576104a461022c565b5b6104b184828501610443565b91505092915050565b7f4e487b7100000000000000000000000000000000000000000000000000000000600052602260045260246000fd5b6000600282049050600182168061050157607f821691505b602082108103610514576105136104ba565b5b50919050565b60008190508160005260206000209050919050565b60006020601f8301049050919050565b600082821b905092915050565b60006008830261057c7fffffffffffffffffffffffffffffffffffffffffffffffffffffffffffffffff8261053f565b610586868361053f565b95508019841693508086168417925050509392505050565b6000819050919050565b60006105c36105be6105b9846101e9565b61059e565b6101e9565b9050919050565b6000819050919050565b6105dd836105a8565b6105f16105e9826105ca565b84845461054c565b825550505050565b600090565b6106066105f9565b6106118184846105d4565b505050565b5b818110156106355761062a6000826105fe565b600181019050610617565b5050565b601f82111561067a5761064b8161051a565b6106548461052f565b81016020851015610663578190505b61067761066f8561052f565b830182610616565b50505b505050565b600082821c905092915050565b600061069d6000198460080261067f565b1980831691505092915050565b60006106b6838361068c565b9150826002028217905092915050565b6106cf8261028a565b67ffffffffffffffff8111156106e8576106e7610346565b5b6106f282546104e9565b6106fd828285610639565b600060209050601f831160018114610730576000841561071e578287015190505b61072885826106aa565b865550610790565b601f19841661073e8661051a565b60005b8281101561076657848901518255600182019150602085019450602081019050610741565b86831015610783578489015161077f601f89168261068c565b8355505b6001600288020188555050505b505050505050565b7f4e487b7100000000000000000000000000000000000000000000000000000000600052601160045260246000fd5b60006107d2826101e9565b91506107dd836101e9565b92508282039050818111156107f5576107f4610798565b5b9291505056fea2646970667358221220592c1194b7d8f763079e07a653be50ec496e92e6ba48ccf2f986024f0658848b64736f6c634300081c0033",
          "opcodes": "PUSH1 0x80 PUSH1 0x40 MSTORE CALLVALUE DUP1 ISZERO PUSH1 0xF JUMPI PUSH1 0x0 DUP1 REVERT JUMPDEST POP PUSH2 0x831 DUP1 PUSH2 0x1F PUSH1 0x0 CODECOPY PUSH1 0x0 RETURN INVALID PUSH1 0x80 PUSH1 0x40 MSTORE CALLVALUE DUP1 ISZERO PUSH2 0x10 JUMPI PUSH1 0x0 DUP1 REVERT JUMPDEST POP PUSH1 0x4 CALLDATASIZE LT PUSH2 0x41 JUMPI PUSH1 0x0 CALLDATALOAD PUSH1 0xE0 SHR DUP1 PUSH4 0x2CD0318F EQ PUSH2 0x46 JUMPI DUP1 PUSH4 0x501895AE EQ PUSH2 0x64 JUMPI DUP1 PUSH4 0xEE7D8D2A EQ PUSH2 0x94 JUMPI JUMPDEST PUSH1 0x0 DUP1 REVERT JUMPDEST PUSH2 0x4E PUSH2 0xB0 JUMP JUMPDEST PUSH1 0x40 MLOAD PUSH2 0x5B SWAP2 SWAP1 PUSH2 0x202 JUMP JUMPDEST PUSH1 0x40 MLOAD DUP1 SWAP2 SUB SWAP1 RETURN JUMPDEST PUSH2 0x7E PUSH1 0x4 DUP1 CALLDATASIZE SUB DUP2 ADD SWAP1 PUSH2 0x79 SWAP2 SWAP1 PUSH2 0x25D JUMP JUMPDEST PUSH2 0xBC JUMP JUMPDEST PUSH1 0x40 MLOAD PUSH2 0x8B SWAP2 SWAP1 PUSH2 0x31A JUMP JUMPDEST PUSH1 0x40 MLOAD DUP1 SWAP2 SUB SWAP1 RETURN JUMPDEST PUSH2 0xAE PUSH1 0x4 DUP1 CALLDATASIZE SUB DUP2 ADD SWAP1 PUSH2 0xA9 SWAP2 SWAP1 PUSH2 0x471 JUMP JUMPDEST PUSH2 0x168 JUMP JUMPDEST STOP JUMPDEST PUSH1 0x0 DUP1 DUP1 SLOAD SWAP1 POP SWAP1 POP SWAP1 JUMP JUMPDEST PUSH1 0x0 DUP2 DUP2 SLOAD DUP2 LT PUSH2 0xCC JUMPI PUSH1 0x0 DUP1 REVERT JUMPDEST SWAP1 PUSH1 0x0 MSTORE PUSH1 0x20 PUSH1 0x0 KECCAK256 ADD PUSH1 0x0 SWAP2 POP SWAP1 POP DUP1 SLOAD PUSH2 0xE7 SWAP1 PUSH2 0x4E9 JUMP JUMPDEST DUP1 PUSH1 0x1F ADD PUSH1 0x20 DUP1 SWAP2 DIV MUL PUSH1 0x20 ADD PUSH1 0x40 MLOAD SWAP1 DUP2 ADD PUSH1 0x40 MSTORE DUP1 SWAP3 SWAP2 SWAP1 DUP2 DUP2 MSTORE PUSH1 0x20 ADD DUP3 DUP1 SLOAD PUSH2 0x113 SWAP1 PUSH2 0x4E9 JUMP JUMPDEST DUP1 ISZERO PUSH2 0x160 JUMPI DUP1 PUSH1 0x1F LT PUSH2 0x135 JUMPI PUSH2 0x100 DUP1 DUP4 SLOAD DIV MUL DUP4 MSTORE SWAP2 PUSH1 0x20 ADD SWAP2 PUSH2 0x160 JUMP JUMPDEST DUP3 ADD SWAP2 SWAP1 PUSH1 0x0 MSTORE PUSH1 0x20 PUSH1 0x0 KECCAK256 SWAP1 JUMPDEST DUP2 SLOAD DUP2 MSTORE SWAP1 PUSH1 0x1 ADD SWAP1 PUSH1 0x20 ADD DUP1 DUP4 GT PUSH2 0x143 JUMPI DUP3 SWAP1 SUB PUSH1 0x1F AND DUP3 ADD SWAP2 JUMPDEST POP POP POP POP POP DUP2 JUMP JUMPDEST PUSH1 0x0 DUP2 SWAP1 DUP1 PUSH1 0x1 DUP2 SLOAD ADD DUP1 DUP3 SSTORE DUP1 SWAP2 POP POP PUSH1 0x1 SWAP1 SUB SWAP1 PUSH1 0x0 MSTORE PUSH1 0x20 PUSH1 0x0 KECCAK256 ADD PUSH1 0x0 SWAP1 SWAP2 SWAP1 SWAP2 SWAP1 SWAP2 POP SWAP1 DUP2 PUSH2 0x19C SWAP2 SWAP1 PUSH2 0x6C6 JUMP JUMPDEST POP PUSH1 0x1 PUSH1 0x0 DUP1 SLOAD SWAP1 POP PUSH2 0x1AF SWAP2 SWAP1 PUSH2 0x7C7 JUMP JUMPDEST PUSH32 0x64759B9D9E10EB752BE437A1024CEF682AC08C945C79621A26480CF4512C516F DUP3 PUSH1 0x40 MLOAD PUSH2 0x1DE SWAP2 SWAP1 PUSH2 0x31A JUMP JUMPDEST PUSH1 0x40 MLOAD DUP1 SWAP2 SUB SWAP1 LOG2 POP JUMP JUMPDEST PUSH1 0x0 DUP2 SWAP1 POP SWAP2 SWAP1 POP JUMP JUMPDEST PUSH2 0x1FC DUP2 PUSH2 0x1E9 JUMP JUMPDEST DUP3 MSTORE POP POP JUMP JUMPDEST PUSH1 0x0 PUSH1 0x20 DUP3 ADD SWAP1 POP PUSH2 0x217 PUSH1 0x0 DUP4 ADD DUP5 PUSH2 0x1F3 JUMP JUMPDEST SWAP3 SWAP2 POP POP JUMP JUMPDEST PUSH1 0x0 PUSH1 0x40 MLOAD SWAP1 POP SWAP1 JUMP JUMPDEST PUSH1 0x0 DUP1 REVERT JUMPDEST PUSH1 0x0 DUP1 REVERT JUMPDEST PUSH2 0x23A DUP2 PUSH2 0x1E9 JUMP JUMPDEST DUP2 EQ PUSH2 0x245 JUMPI PUSH1 0x0 DUP1 REVERT JUMPDEST POP JUMP JUMPDEST PUSH1 0x0 DUP2 CALLDATALOAD SWAP1 POP PUSH2 0x257 DUP2 PUSH2 0x231 JUMP JUMPDEST SWAP3 SWAP2 POP POP JUMP JUMPDEST PUSH1 0x0 PUSH1 0x20 DUP3 DUP5 SUB SLT ISZERO PUSH2 0x273 JUMPI PUSH2 0x272 PUSH2 0x227 JUMP JUMPDEST JUMPDEST PUSH1 0x0 PUSH2 0x281 DUP5 DUP3 DUP6 ADD PUSH2 0x248 JUMP JUMPDEST SWAP2 POP POP SWAP3 SWAP2 POP POP JUMP JUMPDEST PUSH1 0x0 DUP2 MLOAD SWAP1 POP SWAP2 SWAP1 POP JUMP JUMPDEST PUSH1 0x0 DUP3 DUP3 MSTORE PUSH1 0x20 DUP3 ADD SWAP1 POP SWAP3 SWAP2 POP POP JUMP JUMPDEST PUSH1 0x0 JUMPDEST DUP4 DUP2 LT ISZERO PUSH2 0x2C4 JUMPI DUP1 DUP3 ADD MLOAD DUP2 DUP5 ADD MSTORE PUSH1 0x20 DUP2 ADD SWAP1 POP PUSH2 0x2A9 JUMP JUMPDEST PUSH1 0x0 DUP5 DUP5 ADD MSTORE POP POP POP POP JUMP JUMPDEST PUSH1 0x0 PUSH1 0x1F NOT PUSH1 0x1F DUP4 ADD AND SWAP1 POP SWAP2 SWAP1 POP JUMP JUMPDEST PUSH1 0x0 PUSH2 0x2EC DUP3 PUSH2 0x28A JUMP JUMPDEST PUSH2 0x2F6 DUP2 DUP6 PUSH2 0x295 JUMP JUMPDEST SWAP4 POP PUSH2 0x306 DUP2 DUP6 PUSH1 0x20 DUP7 ADD PUSH2 0x2A6 JUMP JUMPDEST PUSH2 0x30F DUP2 PUSH2 0x2D0 JUMP JUMPDEST DUP5 ADD SWAP2 POP POP SWAP3 SWAP2 POP POP JUMP JUMPDEST PUSH1 0x0 PUSH1 0x20 DUP3 ADD SWAP1 POP DUP2 DUP2 SUB PUSH1 0x0 DUP4 ADD MSTORE PUSH2 0x334 DUP2 DUP5 PUSH2 0x2E1 JUMP JUMPDEST SWAP1 POP SWAP3 SWAP2 POP POP JUMP JUMPDEST PUSH1 0x0 DUP1 REVERT JUMPDEST PUSH1 0x0 DUP1 REVERT JUMPDEST PUSH32 0x4E487B7100000000000000000000000000000000000000000000000000000000 PUSH1 0x0 MSTORE PUSH1 0x41 PUSH1 0x4 MSTORE PUSH1 0x24 PUSH1 0x0 REVERT JUMPDEST PUSH2 0x37E DUP3 PUSH2 0x2D0 JUMP JUMPDEST DUP2 ADD DUP2 DUP2 LT PUSH8 0xFFFFFFFFFFFFFFFF DUP3 GT OR ISZERO PUSH2 0x39D JUMPI PUSH2 0x39C PUSH2 0x346 JUMP JUMPDEST JUMPDEST DUP1 PUSH1 0x40 MSTORE POP POP POP JUMP JUMPDEST PUSH1 0x0 PUSH2 0x3B0 PUSH2 0x21D JUMP JUMPDEST SWAP1 POP PUSH2 0x3BC DUP3 DUP3 PUSH2 0x375 JUMP JUMPDEST SWAP2 SWAP1 POP JUMP JUMPDEST PUSH1 0x0 PUSH8 0xFFFFFFFFFFFFFFFF DUP3 GT ISZERO PUSH2 0x3DC JUMPI PUSH2 0x3DB PUSH2 0x346 JUMP JUMPDEST JUMPDEST PUSH2 0x3E5 DUP3 PUSH2 0x2D0 JUMP JUMPDEST SWAP1 POP PUSH1 0x20 DUP2 ADD SWAP1 POP SWAP2 SWAP1 POP JUMP JUMPDEST DUP3 DUP2 DUP4 CALLDATACOPY PUSH1 0x0 DUP4 DUP4 ADD MSTORE POP POP POP JUMP JUMPDEST PUSH1 0x0 PUSH2 0x414 PUSH2 0x40F DUP5 PUSH2 0x3C1 JUMP JUMPDEST PUSH2 0x3A6 JUMP JUMPDEST SWAP1 POP DUP3 DUP2 MSTORE PUSH1 0x20 DUP2 ADD DUP5 DUP5 DUP5 ADD GT ISZERO PUSH2 0x430 JUMPI PUSH2 0x42F PUSH2 0x341 JUMP JUMPDEST JUMPDEST PUSH2 0x43B DUP5 DUP3 DUP6 PUSH2 0x3F2 JUMP JUMPDEST POP SWAP4 SWAP3 POP POP POP JUMP JUMPDEST PUSH1 0x0 DUP3 PUSH1 0x1F DUP4 ADD SLT PUSH2 0x458 JUMPI PUSH2 0x457 PUSH2 0x33C JUMP JUMPDEST JUMPDEST DUP2 CALLDATALOAD PUSH2 0x468 DUP5 DUP3 PUSH1 0x20 DUP7 ADD PUSH2 0x401 JUMP JUMPDEST SWAP2 POP POP SWAP3 SWAP2 POP POP JUMP JUMPDEST PUSH1 0x0 PUSH1 0x20 DUP3 DUP5 SUB SLT ISZERO PUSH2 0x487 JUMPI PUSH2 0x486 PUSH2 0x227 JUMP JUMPDEST JUMPDEST PUSH1 0x0 DUP3 ADD CALLDATALOAD PUSH8 0xFFFFFFFFFFFFFFFF DUP2 GT ISZERO PUSH2 0x4A5 JUMPI PUSH2 0x4A4 PUSH2 0x22C JUMP JUMPDEST JUMPDEST PUSH2 0x4B1 DUP5 DUP3 DUP6 ADD PUSH2 0x443 JUMP JUMPDEST SWAP2 POP POP SWAP3 SWAP2 POP POP JUMP JUMPDEST PUSH32 0x4E487B7100000000000000000000000000000000000000000000000000000000 PUSH1 0x0 MSTORE PUSH1 0x22 PUSH1 0x4 MSTORE PUSH1 0x24 PUSH1 0x0 REVERT JUMPDEST PUSH1 0x0 PUSH1 0x2 DUP3 DIV SWAP1 POP PUSH1 0x1 DUP3 AND DUP1 PUSH2 0x501 JUMPI PUSH1 0x7F DUP3 AND SWAP2 POP JUMPDEST PUSH1 0x20 DUP3 LT DUP2 SUB PUSH2 0x514 JUMPI PUSH2 0x513 PUSH2 0x4BA JUMP JUMPDEST JUMPDEST POP SWAP2 SWAP1 POP JUMP JUMPDEST PUSH1 0x0 DUP2 SWAP1 POP DUP2 PUSH1 0x0 MSTORE PUSH1 0x20 PUSH1 0x0 KECCAK256 SWAP1 POP SWAP2 SWAP1 POP JUMP JUMPDEST PUSH1 0x0 PUSH1 0x20 PUSH1 0x1F DUP4 ADD DIV SWAP1 POP SWAP2 SWAP1 POP JUMP JUMPDEST PUSH1 0x0 DUP3 DUP3 SHL SWAP1 POP SWAP3 SWAP2 POP POP JUMP JUMPDEST PUSH1 0x0 PUSH1 0x8 DUP4 MUL PUSH2 0x57C PUSH32 0xFFFFFFFFFFFFFFFFFFFFFFFFFFFFFFFFFFFFFFFFFFFFFFFFFFFFFFFFFFFFFFFF DUP3 PUSH2 0x53F JUMP JUMPDEST PUSH2 0x586 DUP7 DUP4 PUSH2 0x53F JUMP JUMPDEST SWAP6 POP DUP1 NOT DUP5 AND SWAP4 POP DUP1 DUP7 AND DUP5 OR SWAP3 POP POP POP SWAP4 SWAP3 POP POP POP JUMP JUMPDEST PUSH1 0x0 DUP2 SWAP1 POP SWAP2 SWAP1 POP JUMP JUMPDEST PUSH1 0x0 PUSH2 0x5C3 PUSH2 0x5BE PUSH2 0x5B9 DUP5 PUSH2 0x1E9 JUMP JUMPDEST PUSH2 0x59E JUMP JUMPDEST PUSH2 0x1E9 JUMP JUMPDEST SWAP1 POP SWAP2 SWAP1 POP JUMP JUMPDEST PUSH1 0x0 DUP2 SWAP1 POP SWAP2 SWAP1 POP JUMP JUMPDEST PUSH2 0x5DD DUP4 PUSH2 0x5A8 JUMP JUMPDEST PUSH2 0x5F1 PUSH2 0x5E9 DUP3 PUSH2 0x5CA JUMP JUMPDEST DUP5 DUP5 SLOAD PUSH2 0x54C JUMP JUMPDEST DUP3 SSTORE POP POP POP POP JUMP JUMPDEST PUSH1 0x0 SWAP1 JUMP JUMPDEST PUSH2 0x606 PUSH2 0x5F9 JUMP JUMPDEST PUSH2 0x611 DUP2 DUP5 DUP5 PUSH2 0x5D4 JUMP JUMPDEST POP POP POP JUMP JUMPDEST JUMPDEST DUP2 DUP2 LT ISZERO PUSH2 0x635 JUMPI PUSH2 0x62A PUSH1 0x0 DUP3 PUSH2 0x5FE JUMP JUMPDEST PUSH1 0x1 DUP2 ADD SWAP1 POP PUSH2 0x617 JUMP JUMPDEST POP POP JUMP JUMPDEST PUSH1 0x1F DUP3 GT ISZERO PUSH2 0x67A JUMPI PUSH2 0x64B DUP2 PUSH2 0x51A JUMP JUMPDEST PUSH2 0x654 DUP5 PUSH2 0x52F JUMP JUMPDEST DUP2 ADD PUSH1 0x20 DUP6 LT ISZERO PUSH2 0x663 JUMPI DUP2 SWAP1 POP JUMPDEST PUSH2 0x677 PUSH2 0x66F DUP6 PUSH2 0x52F JUMP JUMPDEST DUP4 ADD DUP3 PUSH2 0x616 JUMP JUMPDEST POP POP JUMPDEST POP POP POP JUMP JUMPDEST PUSH1 0x0 DUP3 DUP3 SHR SWAP1 POP SWAP3 SWAP2 POP POP JUMP JUMPDEST PUSH1 0x0 PUSH2 0x69D PUSH1 0x0 NOT DUP5 PUSH1 0x8 MUL PUSH2 0x67F JUMP JUMPDEST NOT DUP1 DUP4 AND SWAP2 POP POP SWAP3 SWAP2 POP POP JUMP JUMPDEST PUSH1 0x0 PUSH2 0x6B6 DUP4 DUP4 PUSH2 0x68C JUMP JUMPDEST SWAP2 POP DUP3 PUSH1 0x2 MUL DUP3 OR SWAP1 POP SWAP3 SWAP2 POP POP JUMP JUMPDEST PUSH2 0x6CF DUP3 PUSH2 0x28A JUMP JUMPDEST PUSH8 0xFFFFFFFFFFFFFFFF DUP2 GT ISZERO PUSH2 0x6E8 JUMPI PUSH2 0x6E7 PUSH2 0x346 JUMP JUMPDEST JUMPDEST PUSH2 0x6F2 DUP3 SLOAD PUSH2 0x4E9 JUMP JUMPDEST PUSH2 0x6FD DUP3 DUP3 DUP6 PUSH2 0x639 JUMP JUMPDEST PUSH1 0x0 PUSH1 0x20 SWAP1 POP PUSH1 0x1F DUP4 GT PUSH1 0x1 DUP2 EQ PUSH2 0x730 JUMPI PUSH1 0x0 DUP5 ISZERO PUSH2 0x71E JUMPI DUP3 DUP8 ADD MLOAD SWAP1 POP JUMPDEST PUSH2 0x728 DUP6 DUP3 PUSH2 0x6AA JUMP JUMPDEST DUP7 SSTORE POP PUSH2 0x790 JUMP JUMPDEST PUSH1 0x1F NOT DUP5 AND PUSH2 0x73E DUP7 PUSH2 0x51A JUMP JUMPDEST PUSH1 0x0 JUMPDEST DUP3 DUP2 LT ISZERO PUSH2 0x766 JUMPI DUP5 DUP10 ADD MLOAD DUP3 SSTORE PUSH1 0x1 DUP3 ADD SWAP2 POP PUSH1 0x20 DUP6 ADD SWAP5 POP PUSH1 0x20 DUP2 ADD SWAP1 POP PUSH2 0x741 JUMP JUMPDEST DUP7 DUP4 LT ISZERO PUSH2 0x783 JUMPI DUP5 DUP10 ADD MLOAD PUSH2 0x77F PUSH1 0x1F DUP10 AND DUP3 PUSH2 0x68C JUMP JUMPDEST DUP4 SSTORE POP JUMPDEST PUSH1 0x1 PUSH1 0x2 DUP9 MUL ADD DUP9 SSTORE POP POP POP JUMPDEST POP POP POP POP POP POP JUMP JUMPDEST PUSH32 0x4E487B7100000000000000000000000000000000000000000000000000000000 PUSH1 0x0 MSTORE PUSH1 0x11 PUSH1 0x4 MSTORE PUSH1 0x24 PUSH1 0x0 REVERT JUMPDEST PUSH1 0x0 PUSH2 0x7D2 DUP3 PUSH2 0x1E9 JUMP JUMPDEST SWAP2 POP PUSH2 0x7DD DUP4 PUSH2 0x1E9 JUMP JUMPDEST SWAP3 POP DUP3 DUP3 SUB SWAP1 POP DUP2 DUP2 GT ISZERO PUSH2 0x7F5 JUMPI PUSH2 0x7F4 PUSH2 0x798 JUMP JUMPDEST JUMPDEST SWAP3 SWAP2 POP POP JUMP INVALID LOG2 PUSH5 0x6970667358 0x22 SLT KECCAK256 MSIZE 0x2C GT SWAP5 0xB7 0xD8 0xF7 PUSH4 0x79E07A6 MSTORE8 0xBE POP 0xEC BLOBHASH PUSH15 0x92E6BA48CCF2F986024F0658848B64 PUSH20 0x6F6C634300081C00330000000000000000000000 "
        },
        "methodIdentifiers": {
          "adicionarHash(string)": "ee7d8d2a",
          "hashes(uint256)": "501895ae",
          "totalHashes()": "2cd0318f"
        }
      }
    }
  }
}